S01300004430303033455F4C6162312E7372656326
S11300000C942E000C9443000C9443000C94430075
S11300100C9443000C9443000C9443000C94430050
S11300200C9443000C9443000C9443000C94430040
S11300300C9443000C9443000C9443000C94430030
S11300400C9443000C9443000C9443000C94430020
S11300500C9443000C9443000C94430011241FBEE1
S1130060CFEFD4E0DEBFCDBF11E0A0E0B1E0ECE41F
S1130070F1E002C005900D92A431B107D9F70E94B6
S113008099000C94A4000C940000CF93DF93CDB797
S1130090DEB764970FB6F894DEBF0FBECDBF94E110
S11300A0E0E0F1E0DE01119601900D929A95E1F7FE
S11300B0282F30E0205331092A30310518F4E0EDBF
S11300C0E80F03C08A3060F5E82FCB019B01217053
S11300D0332760FF02C0AFE001C0A0EF069700F530
S11300E0EE0FFF0BEC0FFD1F418152817595679553
S11300F0762F6451842F8F70529542954F70452707
S11301005F7045272115310511F08295807FE62F18
S1130110F0E090819A23892B80836B5F7613EACF7A
S113012064960FB6F894DEBF0FBECDBFDF91CF91BA
S11301300895E1E6F0E080E88083108264E070E0F6
S10F014083E00E944500FACFF894FFCF42
S113014C51151001111E111B500B411B411F1101A4
S107015C511F510BCF
S9030000FC
