:100000000C942E000C9443000C9443000C94430079
:100010000C9443000C9443000C9443000C94430054
:100020000C9443000C9443000C9443000C94430044
:100030000C9443000C9443000C9443000C94430034
:100040000C9443000C9443000C9443000C94430024
:100050000C9443000C9443000C94430011241FBEE5
:10006000CFEFD4E0DEBFCDBF11E0A0E0B1E0E6E528
:10007000F3E002C005900D92A431B107D9F70E94B8
:100080005F010C94A9010C94000080EC8093E400C3
:100090008FE08093E70087EB8093E50087E0809313
:1000A000E6000895CF93DF93CDB7DEB764970FB620
:1000B000F894DEBF0FBECDBF94E1E0E0F1E0DE01D9
:1000C000119601900D929A95E1F76630710580F5D1
:1000D000E82FF0E0F097EE0FFF1F81E090E08C0F2B
:1000E0009D1FE80FF91F20813181FB01F595E795F0
:1000F000E451FF4FDB01A170BB2760FF02C04FE05E
:1001000001C040EFBF016C5E7F4F822F8F7094E083
:10011000369527959A95E1F7109711F08295807F93
:1001200090819423892B808335966E177F0769F71A
:1001300064960FB6F894DEBF0FBECDBFDF91CF91AE
:1001400008958F929F92AF92BF92EF92FF920F937A
:100150001F93CF93DF93C5E0D0E02AE0822E912C4D
:10016000A12CB12C161617061806190694F4A50131
:1001700094010E94680179018A01862FBE01805D89
:100180000E9452002197B701C801CF3F2FEFD2073D
:1001900049F7DF91CF911F910F91FF90EF90BF90A2
:1001A000AF909F908F9008958F929F92AF92BF9241
:1001B000CF92DF92EF92FF924B015C0182E0C82E5A
:1001C000D12CE12CF12C9601A701C814D904EA0422
:1001D000FB047CF48FEFC81AD80AE80AF80AC501B4
:1001E000B4010E946801672B682B692B61F780E0DE
:1001F00001C081E0FF90EF90DF90CF90BF90AF9073
:100200009F908F90089580E885B91092F90081E061
:100210008093FE0084E08093810082E0C82ED12C80
:10022000E12CF12CD0E002E11AE7C1E0B12CAA24C4
:10023000A394CC23A9F0B1100AC01F9911C0109249
:10024000F900A092FE00C0E0BB24B3940BC01F993C
:1002500007C0A092F9001092FE00C0E0B12C02C0CD
:100260001F99C1E0809184009091850080179107CB
:1002700070F0D1110CC00E5E15488091F4008823F7
:1002800019F01092F40002C0A092F400D1E0809125
:100290008400909185008017910708F4D0E0C70191
:1002A000B6010E94D400882321F0C701B6010E9444
:1002B000A1008FEFC81AD80AE80AF80ABACFE1E617
:1002C000F0E080E8808310820E9445000E940301D4
:1002D000052E97FB1EF400940E947F0157FD07D066
:1002E0000E94870107FC03D04EF40C947F015095C7
:1002F0004095309521953F4F4F4F5F4F0895909512
:100300008095709561957F4F8F4F9F4F0895A1E223
:100310001A2EAA1BBB1BFD010DC0AA1FBB1FEE1F7F
:10032000FF1FA217B307E407F50720F0A21BB30BCA
:10033000E40BF50B661F771F881F991F1A9469F746
:1003400060957095809590959B01AC01BD01CF01A2
:060350000895F894FFCFB0
:1003560051151001111E111B500B411B411F11019C
:04036600511F510BC7
:00000001FF
