:100000000C942E000C9443000C9443000C94430079
:100010000C9443000C9443000C9443000C94430054
:100020000C9443000C9443000C9443000C94430044
:100030000C9443000C9443000C9443000C94430034
:100040000C9443000C9443000C9443000C94430024
:100050000C9443000C9443000C94430011241FBEE5
:10006000CFEFD4E0DEBFCDBF11E0A0E0B1E0E4E02F
:10007000F1E002C005900D92A030B107D9F70E94BF
:1000800077000C9480000C94000080EC8093E400D6
:100090008FE08093E70087EB8093E50087E0809313
:1000A000E600089584E08093810080E022E13AE751
:1000B00092E040918400509185004217530770F000
:1000C00081110CC02E5E35488091EC00882319F018
:1000D0001092EC0002C09093EC0081E0409184000B
:1000E000509185004217530720F780E0E2CFE1E608
:1000F000F0E080E8808310820E9445000E94520058
:04010000F894FFCFA1
:00000001FF
