S01300004430303033455F4C6162312E7372656326
S11300000C942E000C9443000C9443000C94430075
S11300100C9443000C9443000C9443000C94430050
S11300200C9443000C9443000C9443000C94430040
S11300300C9443000C9443000C9443000C94430030
S11300400C9443000C9443000C9443000C94430020
S11300500C9443000C9443000C94430011241FBEE1
S1130060CFEFD4E0DEBFCDBF11E0A0E0B1E0E6EF1A
S1130070F0E002C005900D92A030B107D9F70E94BC
S113008070000C9479000C94000080EC8093E400E0
S11300908FE08093E70087EB8093E50087E080930F
S11300A0E600089580E885B982E08093EE0081E05F
S11300B090E022E030E2882379F0911107C01F9983
S11300C00BC03093EE0080E091E006C01F9904C09D
S11300D02093EE0080E090E01F9BEDCF81E0EDCF18
S11300E0E1E6F0E080E8808310820E9445000E94EF
S10900F05200F894FFCF5A
S9030000FC
