:100000000C942E000C9443000C9443000C94430079
:100010000C9443000C9443000C9443000C94430054
:100020000C9443000C9443000C9443000C94430044
:100030000C9443000C9443000C9443000C94430034
:100040000C9443000C9443000C9443000C94430024
:100050000C9443000C9443000C94430011241FBEE5
:10006000CFEFD4E0DEBFCDBF11E0A0E0B1E0E2EC25
:10007000F2E002C005900D92A431B107D9F70E94B9
:1000800015010C945F010C94000080EC8093E40057
:100090008FE08093E70087EB8093E50087E0809313
:1000A000E6000895CF93DF93CDB7DEB764970FB620
:1000B000F894DEBF0FBECDBF94E1E0E0F1E0DE01D9
:1000C000119601900D929A95E1F76630710570F5E1
:1000D0008A3008F080E0FE013196E80FF11DE80F4C
:1000E000F11D20813181FB01F595E795E451FF4F2A
:1000F000DB01A170BB2760FF02C04FE001C040EFF1
:10010000BF016C5E7F4F822F8F7094E036952795EC
:100110009A95E1F7109711F08295807F9081942352
:10012000892B80833596E617F70769F764960FB633
:10013000F894DEBF0FBECDBFDF91CF9108958F92AF
:100140009F92AF92BF92EF92FF920F931F93CF9324
:10015000DF93C5E0D0E02AE0822E912CA12CB12CB7
:1001600016161706180619068CF4A50194010E94AC
:100170001E0179018A01862FBE010E94520021973B
:10018000B701C801CF3F2FEFD20751F7DF91CF91D1
:100190001F910F91FF90EF90BF90AF909F908F9025
:1001A00008958F929F92AF92BF92CF92DF92EF927B
:1001B000FF924B015C0182E0C82ED12CE12CF12C86
:1001C0009601A701C814D904EA04FB047CF48FEF5C
:1001D000C81AD80AE80AF80AC501B4010E941E012B
:1001E000672B682B692B61F780E001C081E0FF90ED
:1001F000EF90DF90CF90BF90AF909F908F90089539
:1002000082E0C82ED12CE12CF12CC701B6010E944E
:10021000D100882321F0C701B6010E949F008FEF13
:10022000C81AD80AE80AF80AF0CFE1E6F0E080E858
:10023000808310820E9445000E940001052E97FBDA
:100240001EF400940E94350157FD07D00E943D0125
:1002500007FC03D04EF40C94350150954095309531
:1002600021953F4F4F4F5F4F089590958095709522
:1002700061957F4F8F4F9F4F0895A1E21A2EAA1BC1
:10028000BB1BFD010DC0AA1FBB1FEE1FFF1FA21746
:10029000B307E407F50720F0A21BB30BE40BF50B43
:1002A000661F771F881F991F1A9469F760957095CC
:1002B000809590959B01AC01BD01CF010895F89404
:0202C000FFCF6E
:1002C20051151001111E111B500B411B411F110131
:0402D200511F510B5C
:00000001FF
